{
  "_format": "hh-sol-artifact-1",
  "contractName": "NFT",
  "sourceName": "contracts/NFT.sol",
  "abi": [
    {
      "inputs": [
        {
          "internalType": "string",
          "name": "name",
          "type": "string"
        },
        {
          "internalType": "string",
          "name": "symbol",
          "type": "string"
        }
      ],
      "stateMutability": "nonpayable",
      "type": "constructor"
    },
    {
      "inputs": [
        {
          "internalType": "address",
          "name": "sender",
          "type": "address"
        },
        {
          "internalType": "uint256",
          "name": "tokenId",
          "type": "uint256"
        },
        {
          "internalType": "address",
          "name": "owner",
          "type": "address"
        }
      ],
      "name": "ERC721IncorrectOwner",
      "type": "error"
    },
    {
      "inputs": [
        {
          "internalType": "address",
          "name": "operator",
          "type": "address"
        },
        {
          "internalType": "uint256",
          "name": "tokenId",
          "type": "uint256"
        }
      ],
      "name": "ERC721InsufficientApproval",
      "type": "error"
    },
    {
      "inputs": [
        {
          "internalType": "address",
          "name": "approver",
          "type": "address"
        }
      ],
      "name": "ERC721InvalidApprover",
      "type": "error"
    },
    {
      "inputs": [
        {
          "internalType": "address",
          "name": "operator",
          "type": "address"
        }
      ],
      "name": "ERC721InvalidOperator",
      "type": "error"
    },
    {
      "inputs": [
        {
          "internalType": "address",
          "name": "owner",
          "type": "address"
        }
      ],
      "name": "ERC721InvalidOwner",
      "type": "error"
    },
    {
      "inputs": [
        {
          "internalType": "address",
          "name": "receiver",
          "type": "address"
        }
      ],
      "name": "ERC721InvalidReceiver",
      "type": "error"
    },
    {
      "inputs": [
        {
          "internalType": "address",
          "name": "sender",
          "type": "address"
        }
      ],
      "name": "ERC721InvalidSender",
      "type": "error"
    },
    {
      "inputs": [
        {
          "internalType": "uint256",
          "name": "tokenId",
          "type": "uint256"
        }
      ],
      "name": "ERC721NonexistentToken",
      "type": "error"
    },
    {
      "anonymous": false,
      "inputs": [
        {
          "indexed": true,
          "internalType": "address",
          "name": "owner",
          "type": "address"
        },
        {
          "indexed": true,
          "internalType": "address",
          "name": "approved",
          "type": "address"
        },
        {
          "indexed": true,
          "internalType": "uint256",
          "name": "tokenId",
          "type": "uint256"
        }
      ],
      "name": "Approval",
      "type": "event"
    },
    {
      "anonymous": false,
      "inputs": [
        {
          "indexed": true,
          "internalType": "address",
          "name": "owner",
          "type": "address"
        },
        {
          "indexed": true,
          "internalType": "address",
          "name": "operator",
          "type": "address"
        },
        {
          "indexed": false,
          "internalType": "bool",
          "name": "approved",
          "type": "bool"
        }
      ],
      "name": "ApprovalForAll",
      "type": "event"
    },
    {
      "anonymous": false,
      "inputs": [
        {
          "indexed": false,
          "internalType": "uint256",
          "name": "_fromTokenId",
          "type": "uint256"
        },
        {
          "indexed": false,
          "internalType": "uint256",
          "name": "_toTokenId",
          "type": "uint256"
        }
      ],
      "name": "BatchMetadataUpdate",
      "type": "event"
    },
    {
      "anonymous": false,
      "inputs": [
        {
          "indexed": false,
          "internalType": "uint256",
          "name": "_tokenId",
          "type": "uint256"
        }
      ],
      "name": "MetadataUpdate",
      "type": "event"
    },
    {
      "anonymous": false,
      "inputs": [
        {
          "indexed": false,
          "internalType": "address",
          "name": "to",
          "type": "address"
        },
        {
          "indexed": false,
          "internalType": "uint256",
          "name": "tokenId",
          "type": "uint256"
        },
        {
          "indexed": false,
          "internalType": "string",
          "name": "uri",
          "type": "string"
        }
      ],
      "name": "Minted",
      "type": "event"
    },
    {
      "anonymous": false,
      "inputs": [
        {
          "indexed": true,
          "internalType": "address",
          "name": "from",
          "type": "address"
        },
        {
          "indexed": true,
          "internalType": "address",
          "name": "to",
          "type": "address"
        },
        {
          "indexed": true,
          "internalType": "uint256",
          "name": "tokenId",
          "type": "uint256"
        }
      ],
      "name": "Transfer",
      "type": "event"
    },
    {
      "inputs": [
        {
          "internalType": "address",
          "name": "to",
          "type": "address"
        },
        {
          "internalType": "uint256",
          "name": "tokenId",
          "type": "uint256"
        }
      ],
      "name": "approve",
      "outputs": [],
      "stateMutability": "nonpayable",
      "type": "function"
    },
    {
      "inputs": [
        {
          "internalType": "address",
          "name": "owner",
          "type": "address"
        }
      ],
      "name": "balanceOf",
      "outputs": [
        {
          "internalType": "uint256",
          "name": "",
          "type": "uint256"
        }
      ],
      "stateMutability": "view",
      "type": "function"
    },
    {
      "inputs": [
        {
          "internalType": "uint256",
          "name": "tokenId",
          "type": "uint256"
        }
      ],
      "name": "getApproved",
      "outputs": [
        {
          "internalType": "address",
          "name": "",
          "type": "address"
        }
      ],
      "stateMutability": "view",
      "type": "function"
    },
    {
      "inputs": [
        {
          "internalType": "address",
          "name": "owner",
          "type": "address"
        },
        {
          "internalType": "address",
          "name": "operator",
          "type": "address"
        }
      ],
      "name": "isApprovedForAll",
      "outputs": [
        {
          "internalType": "bool",
          "name": "",
          "type": "bool"
        }
      ],
      "stateMutability": "view",
      "type": "function"
    },
    {
      "inputs": [],
      "name": "name",
      "outputs": [
        {
          "internalType": "string",
          "name": "",
          "type": "string"
        }
      ],
      "stateMutability": "view",
      "type": "function"
    },
    {
      "inputs": [
        {
          "internalType": "uint256",
          "name": "tokenId",
          "type": "uint256"
        }
      ],
      "name": "ownerOf",
      "outputs": [
        {
          "internalType": "address",
          "name": "",
          "type": "address"
        }
      ],
      "stateMutability": "view",
      "type": "function"
    },
    {
      "inputs": [
        {
          "internalType": "address",
          "name": "to",
          "type": "address"
        },
        {
          "internalType": "string",
          "name": "uri",
          "type": "string"
        }
      ],
      "name": "safeMint",
      "outputs": [],
      "stateMutability": "nonpayable",
      "type": "function"
    },
    {
      "inputs": [
        {
          "internalType": "address",
          "name": "from",
          "type": "address"
        },
        {
          "internalType": "address",
          "name": "to",
          "type": "address"
        },
        {
          "internalType": "uint256",
          "name": "tokenId",
          "type": "uint256"
        }
      ],
      "name": "safeTransferFrom",
      "outputs": [],
      "stateMutability": "nonpayable",
      "type": "function"
    },
    {
      "inputs": [
        {
          "internalType": "address",
          "name": "from",
          "type": "address"
        },
        {
          "internalType": "address",
          "name": "to",
          "type": "address"
        },
        {
          "internalType": "uint256",
          "name": "tokenId",
          "type": "uint256"
        },
        {
          "internalType": "bytes",
          "name": "data",
          "type": "bytes"
        }
      ],
      "name": "safeTransferFrom",
      "outputs": [],
      "stateMutability": "nonpayable",
      "type": "function"
    },
    {
      "inputs": [
        {
          "internalType": "address",
          "name": "operator",
          "type": "address"
        },
        {
          "internalType": "bool",
          "name": "approved",
          "type": "bool"
        }
      ],
      "name": "setApprovalForAll",
      "outputs": [],
      "stateMutability": "nonpayable",
      "type": "function"
    },
    {
      "inputs": [
        {
          "internalType": "bytes4",
          "name": "interfaceId",
          "type": "bytes4"
        }
      ],
      "name": "supportsInterface",
      "outputs": [
        {
          "internalType": "bool",
          "name": "",
          "type": "bool"
        }
      ],
      "stateMutability": "view",
      "type": "function"
    },
    {
      "inputs": [],
      "name": "symbol",
      "outputs": [
        {
          "internalType": "string",
          "name": "",
          "type": "string"
        }
      ],
      "stateMutability": "view",
      "type": "function"
    },
    {
      "inputs": [
        {
          "internalType": "uint256",
          "name": "tokenId",
          "type": "uint256"
        }
      ],
      "name": "tokenURI",
      "outputs": [
        {
          "internalType": "string",
          "name": "",
          "type": "string"
        }
      ],
      "stateMutability": "view",
      "type": "function"
    },
    {
      "inputs": [
        {
          "internalType": "address",
          "name": "from",
          "type": "address"
        },
        {
          "internalType": "address",
          "name": "to",
          "type": "address"
        },
        {
          "internalType": "uint256",
          "name": "tokenId",
          "type": "uint256"
        }
      ],
      "name": "transferFrom",
      "outputs": [],
      "stateMutability": "nonpayable",
      "type": "function"
    }
  ],
  "bytecode": "0x60806040523480156200001157600080fd5b5060405162002a2c38038062002a2c8339818101604052810190620000379190620001fa565b818181600090816200004a9190620004ca565b5080600190816200005c9190620004ca565b5050505050620005b1565b6000604051905090565b600080fd5b600080fd5b600080fd5b600080fd5b6000601f19601f8301169050919050565b7f4e487b7100000000000000000000000000000000000000000000000000000000600052604160045260246000fd5b620000d08262000085565b810181811067ffffffffffffffff82111715620000f257620000f162000096565b5b80604052505050565b60006200010762000067565b9050620001158282620000c5565b919050565b600067ffffffffffffffff82111562000138576200013762000096565b5b620001438262000085565b9050602081019050919050565b60005b838110156200017057808201518184015260208101905062000153565b60008484015250505050565b6000620001936200018d846200011a565b620000fb565b905082815260208101848484011115620001b257620001b162000080565b5b620001bf84828562000150565b509392505050565b600082601f830112620001df57620001de6200007b565b5b8151620001f18482602086016200017c565b91505092915050565b6000806040838503121562000214576200021362000071565b5b600083015167ffffffffffffffff81111562000235576200023462000076565b5b6200024385828601620001c7565b925050602083015167ffffffffffffffff81111562000267576200026662000076565b5b6200027585828601620001c7565b9150509250929050565b600081519050919050565b7f4e487b7100000000000000000000000000000000000000000000000000000000600052602260045260246000fd5b60006002820490506001821680620002d257607f821691505b602082108103620002e857620002e76200028a565b5b50919050565b60008190508160005260206000209050919050565b60006020601f8301049050919050565b600082821b905092915050565b600060088302620003527fffffffffffffffffffffffffffffffffffffffffffffffffffffffffffffffff8262000313565b6200035e868362000313565b95508019841693508086168417925050509392505050565b6000819050919050565b6000819050919050565b6000620003ab620003a56200039f8462000376565b62000380565b62000376565b9050919050565b6000819050919050565b620003c7836200038a565b620003df620003d682620003b2565b84845462000320565b825550505050565b600090565b620003f6620003e7565b62000403818484620003bc565b505050565b5b818110156200042b576200041f600082620003ec565b60018101905062000409565b5050565b601f8211156200047a576200044481620002ee565b6200044f8462000303565b810160208510156200045f578190505b620004776200046e8562000303565b83018262000408565b50505b505050565b600082821c905092915050565b60006200049f600019846008026200047f565b1980831691505092915050565b6000620004ba83836200048c565b9150826002028217905092915050565b620004d5826200027f565b67ffffffffffffffff811115620004f157620004f062000096565b5b620004fd8254620002b9565b6200050a8282856200042f565b600060209050601f8311600181146200054257600084156200052d578287015190505b620005398582620004ac565b865550620005a9565b601f1984166200055286620002ee565b60005b828110156200057c5784890151825560018201915060208501945060208101905062000555565b868310156200059c578489015162000598601f8916826200048c565b8355505b6001600288020188555050505b505050505050565b61246b80620005c16000396000f3fe608060405234801561001057600080fd5b50600436106100ea5760003560e01c806370a082311161008c578063b88d4fde11610066578063b88d4fde1461025b578063c87b56dd14610277578063d204c45e146102a7578063e985e9c5146102c3576100ea565b806370a08231146101f157806395d89b4114610221578063a22cb4651461023f576100ea565b8063095ea7b3116100c8578063095ea7b31461016d57806323b872dd1461018957806342842e0e146101a55780636352211e146101c1576100ea565b806301ffc9a7146100ef57806306fdde031461011f578063081812fc1461013d575b600080fd5b61010960048036038101906101049190611899565b6102f3565b60405161011691906118e1565b60405180910390f35b610127610305565b604051610134919061198c565b60405180910390f35b610157600480360381019061015291906119e4565b610397565b6040516101649190611a52565b60405180910390f35b61018760048036038101906101829190611a99565b6103b3565b005b6101a3600480360381019061019e9190611ad9565b6103c9565b005b6101bf60048036038101906101ba9190611ad9565b6104cb565b005b6101db60048036038101906101d691906119e4565b6104eb565b6040516101e89190611a52565b60405180910390f35b61020b60048036038101906102069190611b2c565b6104fd565b6040516102189190611b68565b60405180910390f35b6102296105b7565b604051610236919061198c565b60405180910390f35b61025960048036038101906102549190611baf565b610649565b005b61027560048036038101906102709190611d24565b61065f565b005b610291600480360381019061028c91906119e4565b61067c565b60405161029e919061198c565b60405180910390f35b6102c160048036038101906102bc9190611e48565b61068e565b005b6102dd60048036038101906102d89190611ea4565b610703565b6040516102ea91906118e1565b60405180910390f35b60006102fe82610797565b9050919050565b60606000805461031490611f13565b80601f016020809104026020016040519081016040528092919081815260200182805461034090611f13565b801561038d5780601f106103625761010080835404028352916020019161038d565b820191906000526020600020905b81548152906001019060200180831161037057829003601f168201915b5050505050905090565b60006103a2826107f8565b506103ac82610880565b9050919050565b6103c582826103c06108bd565b6108c5565b5050565b600073ffffffffffffffffffffffffffffffffffffffff168273ffffffffffffffffffffffffffffffffffffffff160361043b5760006040517f64a0ae920000000000000000000000000000000000000000000000000000000081526004016104329190611a52565b60405180910390fd5b600061044f838361044a6108bd565b6108d7565b90508373ffffffffffffffffffffffffffffffffffffffff168173ffffffffffffffffffffffffffffffffffffffff16146104c5578382826040517f64283d7b0000000000000000000000000000000000000000000000000000000081526004016104bc93929190611f44565b60405180910390fd5b50505050565b6104e68383836040518060200160405280600081525061065f565b505050565b60006104f6826107f8565b9050919050565b60008073ffffffffffffffffffffffffffffffffffffffff168273ffffffffffffffffffffffffffffffffffffffff16036105705760006040517f89c62b640000000000000000000000000000000000000000000000000000000081526004016105679190611a52565b60405180910390fd5b600360008373ffffffffffffffffffffffffffffffffffffffff1673ffffffffffffffffffffffffffffffffffffffff168152602001908152602001600020549050919050565b6060600180546105c690611f13565b80601f01602080910402602001604051908101604052809291908181526020018280546105f290611f13565b801561063f5780601f106106145761010080835404028352916020019161063f565b820191906000526020600020905b81548152906001019060200180831161062257829003601f168201915b5050505050905090565b61065b6106546108bd565b8383610af1565b5050565b61066a8484846103c9565b61067684848484610c60565b50505050565b606061068782610e17565b9050919050565b600060075490506001600760008282546106a89190611faa565b925050819055506106b98382610f2a565b6106c38183610f48565b7fe7cd4ce7f2a465edc730269a1305e8a48bad821e8fb7e152ec413829c01a53c48382846040516106f693929190611fde565b60405180910390a1505050565b6000600560008473ffffffffffffffffffffffffffffffffffffffff1673ffffffffffffffffffffffffffffffffffffffff16815260200190815260200160002060008373ffffffffffffffffffffffffffffffffffffffff1673ffffffffffffffffffffffffffffffffffffffff16815260200190815260200160002060009054906101000a900460ff16905092915050565b6000634906490660e01b7bffffffffffffffffffffffffffffffffffffffffffffffffffffffff1916827bffffffffffffffffffffffffffffffffffffffffffffffffffffffff191614806107f157506107f082610fa4565b5b9050919050565b60008061080483611086565b9050600073ffffffffffffffffffffffffffffffffffffffff168173ffffffffffffffffffffffffffffffffffffffff160361087757826040517f7e27328900000000000000000000000000000000000000000000000000000000815260040161086e9190611b68565b60405180910390fd5b80915050919050565b60006004600083815260200190815260200160002060009054906101000a900473ffffffffffffffffffffffffffffffffffffffff169050919050565b600033905090565b6108d283838360016110c3565b505050565b6000806108e384611086565b9050600073ffffffffffffffffffffffffffffffffffffffff168373ffffffffffffffffffffffffffffffffffffffff161461092557610924818486611288565b5b600073ffffffffffffffffffffffffffffffffffffffff168173ffffffffffffffffffffffffffffffffffffffff16146109b6576109676000856000806110c3565b6001600360008373ffffffffffffffffffffffffffffffffffffffff1673ffffffffffffffffffffffffffffffffffffffff168152602001908152602001600020600082825403925050819055505b600073ffffffffffffffffffffffffffffffffffffffff168573ffffffffffffffffffffffffffffffffffffffff1614610a39576001600360008773ffffffffffffffffffffffffffffffffffffffff1673ffffffffffffffffffffffffffffffffffffffff168152602001908152602001600020600082825401925050819055505b846002600086815260200190815260200160002060006101000a81548173ffffffffffffffffffffffffffffffffffffffff021916908373ffffffffffffffffffffffffffffffffffffffff160217905550838573ffffffffffffffffffffffffffffffffffffffff168273ffffffffffffffffffffffffffffffffffffffff167fddf252ad1be2c89b69c2b068fc378daa952ba7f163c4a11628f55a4df523b3ef60405160405180910390a4809150509392505050565b600073ffffffffffffffffffffffffffffffffffffffff168273ffffffffffffffffffffffffffffffffffffffff1603610b6257816040517f5b08ba18000000000000000000000000000000000000000000000000000000008152600401610b599190611a52565b60405180910390fd5b80600560008573ffffffffffffffffffffffffffffffffffffffff1673ffffffffffffffffffffffffffffffffffffffff16815260200190815260200160002060008473ffffffffffffffffffffffffffffffffffffffff1673ffffffffffffffffffffffffffffffffffffffff16815260200190815260200160002060006101000a81548160ff0219169083151502179055508173ffffffffffffffffffffffffffffffffffffffff168373ffffffffffffffffffffffffffffffffffffffff167f17307eab39ab6107e8899845ad3d59bd9653f200f220920489ca2b5937696c3183604051610c5391906118e1565b60405180910390a3505050565b60008373ffffffffffffffffffffffffffffffffffffffff163b1115610e11578273ffffffffffffffffffffffffffffffffffffffff1663150b7a02610ca46108bd565b8685856040518563ffffffff1660e01b8152600401610cc69493929190612071565b6020604051808303816000875af1925050508015610d0257506040513d601f19601f82011682018060405250810190610cff91906120d2565b60015b610d86573d8060008114610d32576040519150601f19603f3d011682016040523d82523d6000602084013e610d37565b606091505b506000815103610d7e57836040517f64a0ae92000000000000000000000000000000000000000000000000000000008152600401610d759190611a52565b60405180910390fd5b805181602001fd5b63150b7a0260e01b7bffffffffffffffffffffffffffffffffffffffffffffffffffffffff1916817bffffffffffffffffffffffffffffffffffffffffffffffffffffffff191614610e0f57836040517f64a0ae92000000000000000000000000000000000000000000000000000000008152600401610e069190611a52565b60405180910390fd5b505b50505050565b6060610e22826107f8565b506000600660008481526020019081526020016000208054610e4390611f13565b80601f0160208091040260200160405190810160405280929190818152602001828054610e6f90611f13565b8015610ebc5780601f10610e9157610100808354040283529160200191610ebc565b820191906000526020600020905b815481529060010190602001808311610e9f57829003601f168201915b505050505090506000610ecd61134c565b90506000815103610ee2578192505050610f25565b600082511115610f17578082604051602001610eff92919061213b565b60405160208183030381529060405292505050610f25565b610f2084611363565b925050505b919050565b610f448282604051806020016040528060008152506113cc565b5050565b80600660008481526020019081526020016000209081610f68919061230b565b507ff8e1a15aba9398e019f0b49df1a4fde98ee17ae345cb5f6b5e2c27f5033e8ce782604051610f989190611b68565b60405180910390a15050565b60007f80ac58cd000000000000000000000000000000000000000000000000000000007bffffffffffffffffffffffffffffffffffffffffffffffffffffffff1916827bffffffffffffffffffffffffffffffffffffffffffffffffffffffff1916148061106f57507f5b5e139f000000000000000000000000000000000000000000000000000000007bffffffffffffffffffffffffffffffffffffffffffffffffffffffff1916827bffffffffffffffffffffffffffffffffffffffffffffffffffffffff1916145b8061107f575061107e826113e8565b5b9050919050565b60006002600083815260200190815260200160002060009054906101000a900473ffffffffffffffffffffffffffffffffffffffff169050919050565b80806110fc5750600073ffffffffffffffffffffffffffffffffffffffff168273ffffffffffffffffffffffffffffffffffffffff1614155b1561123057600061110c846107f8565b9050600073ffffffffffffffffffffffffffffffffffffffff168373ffffffffffffffffffffffffffffffffffffffff161415801561117757508273ffffffffffffffffffffffffffffffffffffffff168173ffffffffffffffffffffffffffffffffffffffff1614155b801561118a57506111888184610703565b155b156111cc57826040517fa9fbf51f0000000000000000000000000000000000000000000000000000000081526004016111c39190611a52565b60405180910390fd5b811561122e57838573ffffffffffffffffffffffffffffffffffffffff168273ffffffffffffffffffffffffffffffffffffffff167f8c5be1e5ebec7d5bd14f71427d1e84f3dd0314c0f7b2291e5b200ac8c7c3b92560405160405180910390a45b505b836004600085815260200190815260200160002060006101000a81548173ffffffffffffffffffffffffffffffffffffffff021916908373ffffffffffffffffffffffffffffffffffffffff16021790555050505050565b611293838383611452565b61134757600073ffffffffffffffffffffffffffffffffffffffff168373ffffffffffffffffffffffffffffffffffffffff160361130857806040517f7e2732890000000000000000000000000000000000000000000000000000000081526004016112ff9190611b68565b60405180910390fd5b81816040517f177e802f00000000000000000000000000000000000000000000000000000000815260040161133e9291906123dd565b60405180910390fd5b505050565b606060405180602001604052806000815250905090565b606061136e826107f8565b50600061137961134c565b9050600081511161139957604051806020016040528060008152506113c4565b806113a384611513565b6040516020016113b492919061213b565b6040516020818303038152906040525b915050919050565b6113d683836115e1565b6113e36000848484610c60565b505050565b60007f01ffc9a7000000000000000000000000000000000000000000000000000000007bffffffffffffffffffffffffffffffffffffffffffffffffffffffff1916827bffffffffffffffffffffffffffffffffffffffffffffffffffffffff1916149050919050565b60008073ffffffffffffffffffffffffffffffffffffffff168373ffffffffffffffffffffffffffffffffffffffff161415801561150a57508273ffffffffffffffffffffffffffffffffffffffff168473ffffffffffffffffffffffffffffffffffffffff1614806114cb57506114ca8484610703565b5b8061150957508273ffffffffffffffffffffffffffffffffffffffff166114f183610880565b73ffffffffffffffffffffffffffffffffffffffff16145b5b90509392505050565b606060006001611522846116da565b01905060008167ffffffffffffffff81111561154157611540611bf9565b5b6040519080825280601f01601f1916602001820160405280156115735781602001600182028036833780820191505090505b509050600082602001820190505b6001156115d6578080600190039150507f3031323334353637383961626364656600000000000000000000000000000000600a86061a8153600a85816115ca576115c9612406565b5b04945060008503611581575b819350505050919050565b600073ffffffffffffffffffffffffffffffffffffffff168273ffffffffffffffffffffffffffffffffffffffff16036116535760006040517f64a0ae9200000000000000000000000000000000000000000000000000000000815260040161164a9190611a52565b60405180910390fd5b6000611661838360006108d7565b9050600073ffffffffffffffffffffffffffffffffffffffff168173ffffffffffffffffffffffffffffffffffffffff16146116d55760006040517f73c6ac6e0000000000000000000000000000000000000000000000000000000081526004016116cc9190611a52565b60405180910390fd5b505050565b600080600090507a184f03e93ff9f4daa797ed6e38ed64bf6a1f0100000000000000008310611738577a184f03e93ff9f4daa797ed6e38ed64bf6a1f010000000000000000838161172e5761172d612406565b5b0492506040810190505b6d04ee2d6d415b85acef81000000008310611775576d04ee2d6d415b85acef8100000000838161176b5761176a612406565b5b0492506020810190505b662386f26fc1000083106117a457662386f26fc10000838161179a57611799612406565b5b0492506010810190505b6305f5e10083106117cd576305f5e10083816117c3576117c2612406565b5b0492506008810190505b61271083106117f25761271083816117e8576117e7612406565b5b0492506004810190505b60648310611815576064838161180b5761180a612406565b5b0492506002810190505b600a8310611824576001810190505b80915050919050565b6000604051905090565b600080fd5b600080fd5b60007fffffffff0000000000000000000000000000000000000000000000000000000082169050919050565b61187681611841565b811461188157600080fd5b50565b6000813590506118938161186d565b92915050565b6000602082840312156118af576118ae611837565b5b60006118bd84828501611884565b91505092915050565b60008115159050919050565b6118db816118c6565b82525050565b60006020820190506118f660008301846118d2565b92915050565b600081519050919050565b600082825260208201905092915050565b60005b8381101561193657808201518184015260208101905061191b565b60008484015250505050565b6000601f19601f8301169050919050565b600061195e826118fc565b6119688185611907565b9350611978818560208601611918565b61198181611942565b840191505092915050565b600060208201905081810360008301526119a68184611953565b905092915050565b6000819050919050565b6119c1816119ae565b81146119cc57600080fd5b50565b6000813590506119de816119b8565b92915050565b6000602082840312156119fa576119f9611837565b5b6000611a08848285016119cf565b91505092915050565b600073ffffffffffffffffffffffffffffffffffffffff82169050919050565b6000611a3c82611a11565b9050919050565b611a4c81611a31565b82525050565b6000602082019050611a676000830184611a43565b92915050565b611a7681611a31565b8114611a8157600080fd5b50565b600081359050611a9381611a6d565b92915050565b60008060408385031215611ab057611aaf611837565b5b6000611abe85828601611a84565b9250506020611acf858286016119cf565b9150509250929050565b600080600060608486031215611af257611af1611837565b5b6000611b0086828701611a84565b9350506020611b1186828701611a84565b9250506040611b22868287016119cf565b9150509250925092565b600060208284031215611b4257611b41611837565b5b6000611b5084828501611a84565b91505092915050565b611b62816119ae565b82525050565b6000602082019050611b7d6000830184611b59565b92915050565b611b8c816118c6565b8114611b9757600080fd5b50565b600081359050611ba981611b83565b92915050565b60008060408385031215611bc657611bc5611837565b5b6000611bd485828601611a84565b9250506020611be585828601611b9a565b9150509250929050565b600080fd5b600080fd5b7f4e487b7100000000000000000000000000000000000000000000000000000000600052604160045260246000fd5b611c3182611942565b810181811067ffffffffffffffff82111715611c5057611c4f611bf9565b5b80604052505050565b6000611c6361182d565b9050611c6f8282611c28565b919050565b600067ffffffffffffffff821115611c8f57611c8e611bf9565b5b611c9882611942565b9050602081019050919050565b82818337600083830152505050565b6000611cc7611cc284611c74565b611c59565b905082815260208101848484011115611ce357611ce2611bf4565b5b611cee848285611ca5565b509392505050565b600082601f830112611d0b57611d0a611bef565b5b8135611d1b848260208601611cb4565b91505092915050565b60008060008060808587031215611d3e57611d3d611837565b5b6000611d4c87828801611a84565b9450506020611d5d87828801611a84565b9350506040611d6e878288016119cf565b925050606085013567ffffffffffffffff811115611d8f57611d8e61183c565b5b611d9b87828801611cf6565b91505092959194509250565b600067ffffffffffffffff821115611dc257611dc1611bf9565b5b611dcb82611942565b9050602081019050919050565b6000611deb611de684611da7565b611c59565b905082815260208101848484011115611e0757611e06611bf4565b5b611e12848285611ca5565b509392505050565b600082601f830112611e2f57611e2e611bef565b5b8135611e3f848260208601611dd8565b91505092915050565b60008060408385031215611e5f57611e5e611837565b5b6000611e6d85828601611a84565b925050602083013567ffffffffffffffff811115611e8e57611e8d61183c565b5b611e9a85828601611e1a565b9150509250929050565b60008060408385031215611ebb57611eba611837565b5b6000611ec985828601611a84565b9250506020611eda85828601611a84565b9150509250929050565b7f4e487b7100000000000000000000000000000000000000000000000000000000600052602260045260246000fd5b60006002820490506001821680611f2b57607f821691505b602082108103611f3e57611f3d611ee4565b5b50919050565b6000606082019050611f596000830186611a43565b611f666020830185611b59565b611f736040830184611a43565b949350505050565b7f4e487b7100000000000000000000000000000000000000000000000000000000600052601160045260246000fd5b6000611fb5826119ae565b9150611fc0836119ae565b9250828201905080821115611fd857611fd7611f7b565b5b92915050565b6000606082019050611ff36000830186611a43565b6120006020830185611b59565b81810360408301526120128184611953565b9050949350505050565b600081519050919050565b600082825260208201905092915050565b60006120438261201c565b61204d8185612027565b935061205d818560208601611918565b61206681611942565b840191505092915050565b60006080820190506120866000830187611a43565b6120936020830186611a43565b6120a06040830185611b59565b81810360608301526120b28184612038565b905095945050505050565b6000815190506120cc8161186d565b92915050565b6000602082840312156120e8576120e7611837565b5b60006120f6848285016120bd565b91505092915050565b600081905092915050565b6000612115826118fc565b61211f81856120ff565b935061212f818560208601611918565b80840191505092915050565b6000612147828561210a565b9150612153828461210a565b91508190509392505050565b60008190508160005260206000209050919050565b60006020601f8301049050919050565b600082821b905092915050565b6000600883026121c17fffffffffffffffffffffffffffffffffffffffffffffffffffffffffffffffff82612184565b6121cb8683612184565b95508019841693508086168417925050509392505050565b6000819050919050565b60006122086122036121fe846119ae565b6121e3565b6119ae565b9050919050565b6000819050919050565b612222836121ed565b61223661222e8261220f565b848454612191565b825550505050565b600090565b61224b61223e565b612256818484612219565b505050565b5b8181101561227a5761226f600082612243565b60018101905061225c565b5050565b601f8211156122bf576122908161215f565b61229984612174565b810160208510156122a8578190505b6122bc6122b485612174565b83018261225b565b50505b505050565b600082821c905092915050565b60006122e2600019846008026122c4565b1980831691505092915050565b60006122fb83836122d1565b9150826002028217905092915050565b612314826118fc565b67ffffffffffffffff81111561232d5761232c611bf9565b5b6123378254611f13565b61234282828561227e565b600060209050601f8311600181146123755760008415612363578287015190505b61236d85826122ef565b8655506123d5565b601f1984166123838661215f565b60005b828110156123ab57848901518255600182019150602085019450602081019050612386565b868310156123c857848901516123c4601f8916826122d1565b8355505b6001600288020188555050505b505050505050565b60006040820190506123f26000830185611a43565b6123ff6020830184611b59565b9392505050565b7f4e487b7100000000000000000000000000000000000000000000000000000000600052601260045260246000fdfea26469706673582212202fb8ce3e2a3be5116a35c814088fde9ab85f81413b71bcabd4dfb264d174112364736f6c63430008180033",
  "linkReferences": {},
  "deployedLinkReferences": {}
}